:020000040000FA
:0400000023EF0BF0EF
:100600000056616D6F7320696E69636961722100C4
:10061000436C6971756520656D2028312900467528
:100620006E63696F6E616E646F210054656D7065F5
:100630007261747572613A0054656D706F3A006D45
:10064000696E00430000000E446E100E436E000EF3
:100650003B6EB40E3A6E300E3C6E300E3D6E300E78
:100660003E6E000E426E000E416E070E926E000E40
:10067000936E000E946E77EC09F03DEC0BF0010EDA
:10068000096E000ED9EC0AF0010E096E060E0A6E14
:10069000B1EC0AF0010E096E010ED9EC0AF0100E51
:1006A000096E060E0A6EB1EC0AF06EEC07F038EC3B
:1006B0000BF04350011809E144500218D8B463EF1D
:1006C00003F065EF03F03FEF03F038EC0BF001C0EF
:1006D00043F002C044F043A670EF03F072EF03F062
:1006E0003FEF03F0010E38EC09F00CEF04F0000EC0
:1006F000096E000ED9EC0AF02B0E096E060E0A6E7A
:10070000B1EC0AF0F7EC08F019C03AF01AC03BF06F
:10071000000E096E010ED9EC0AF0380E096E060EB5
:100720000A6EB1EC0AF0060E096E010ED9EC0AF061
:100730003C5087EC0AF03D5087EC0AF03E5087ECC5
:100740000AF03F0E096E060E0A6EB1EC0AF06EEC6E
:1007500007F038EC0BF04350011809E1445002183F
:10076000D8B4B5EF03F0B7EF03F00CEF04F038ECBA
:100770000BF001C043F002C044F043A2C2EF03F00B
:10078000C4EF03F0D8EF03F0390E3C18D8A4CBEF38
:1007900003F0CDEF03F0D1EF03F0300E3C6E0CEF21
:1007A00004F03C2A640E4126000E42220CEF04F0B5
:1007B00043AADDEF03F0DFEF03F0F3EF03F0390EB0
:1007C0003D18D8A4E6EF03F0E8EF03F0ECEF03F0F8
:1007D000300E3D6E0CEF04F03D2A0A0E4126000E4D
:1007E00042220CEF04F044A2F8EF03F0FAEF03F01A
:1007F0000CEF04F0390E3E18D8A401EF04F003EF1B
:1008000004F007EF04F0300E3E6E0CEF04F03E2AC9
:10081000414A422A0CEF04F043A011EF04F013EF19
:1008200004F077EF03F043A018EF04F01AEF04F0A0
:1008300012EF05F0010E38EC09F00A0E3A242E6E84
:10084000000E3B202F6EF60E3A24306EFF0E3B203A
:10085000316E2EEC0BF01E0EEDEC09F0816802EF0C
:1008600005F0010E38EC09F0020E096E000ED9EC0D
:100870000AF01E0E096E060E0A6EB1EC0AF0090EA1
:10088000096E010ED9EC0AF041C015F042C016F015
:10089000280E176E000E186E2BEC08F02A5087EC0D
:1008A0000AF02B5087EC0AF02C5087EC0AF03F0E30
:1008B000096E060E0A6EB1EC0AF04106D8A0420697
:1008C000010EAFEC08F001C008F002C009F0000E04
:1008D0000B6E0A0E0A6EF6EC0AF0D8900930266EFE
:1008E0000830326E26C033F0E80E3224086EFE0E59
:1008F0003320096E000E0B6EDE0E0A6EF6EC0AF067
:1009000008C00EF009C00FF0000E116E2E0E106E12
:10091000B3EC09F0180E0E243F6E010E0F20406E4E
:10092000010E096E010ED9EC0AF03FC015F040C06F
:1009300016F0340E176E000E186E2BEC08F03550C2
:1009400087EC0AF0365087EC0AF0375087EC0AF053
:100950002C0E87EC0AF0385087EC0AF0430E096E33
:10096000060E0A6EB1EC0AF0030E026EE80E016E7E
:1009700055EC0AF02EC008F02FC009F0000E0B6EE7
:100980000A0E0A6EF6EC0AF03F50085C4050095817
:10099000D8B0CDEF04F0CFEF04F0D6EF04F0000EA6
:1009A000026E640E016E55EC0AF0829A30C008F0B7
:1009B00031C009F0000E0B6E0A0E0A6EF6EC0AF05A
:1009C00008503F5C09504058D8B0E9EF04F0EBEF15
:1009D00004F0ECEF04F0828A6EEC07F038EC0BF0D8
:1009E0004350011809E144500218D8B4FAEF04F05A
:1009F000FCEF04F002EF05F038EC0BF001C043F01F
:100A000002C044F043B807EF05F009EF05F012EF1C
:100A100005F041504210D8A410EF05F012EF05F098
:100A200031EF04F0000E816E010E38EC09F0829A6D
:100A30009490000EEDEC09F03FEF03F000EF00F0B2
:100A400002BE2EEF05F0025007E1080E015CD8B09F
:100A50002CEF05F02EEF05F058EF05F003500410D1
:100A6000D8B435EF05F037EF05F047EF05F001C0DA
:100A700005F0010E066E052A40EF05F0D890063607
:100A8000052E3EEF05F00650921246EF06F001C02B
:100A900005F0010E066E052A50EF05F0D8900636D7
:100AA000052E4EEF05F00650FF0A921646EF06F0AF
:100AB00002BE66EF05F0025007E1100E015CD8B0EF
:100AC00064EF05F066EF05F094EF05F003500410B5
:100AD000D8B46DEF05F06FEF05F081EF05F001C0C0
:100AE00005F0F80E0526010E066E052A7AEF05F0D0
:100AF000D8900636052E78EF05F00650931246EF93
:100B000006F001C005F0F80E0526010E066E052A56
:100B10008CEF05F0D8900636052E8AEF05F00650CA
:100B2000FF0A931646EF06F002BEA2EF05F0025050
:100B300007E1180E015CD8B0A0EF05F0A2EF05F0B8
:100B4000D0EF05F003500410D8B4A9EF05F0ABEFD7
:100B500005F0BDEF05F001C005F0F00E0526010E11
:100B6000066E052AB6EF05F0D8900636052EB4EFCE
:100B700005F00650941246EF06F001C005F0F00EA5
:100B80000526010E066E052AC8EF05F0D890063638
:100B9000052EC6EF05F00650FF0A941646EF06F044
:100BA00002BEDEEF05F0025007E1200E015CD8B076
:100BB000DCEF05F0DEEF05F00CEF06F0035004105B
:100BC000D8B4E5EF05F0E7EF05F0F9EF05F001C067
:100BD00005F0E80E0526010E066E052AF2EF05F077
:100BE000D8900636052EF0EF05F00650951246EF28
:100BF00006F001C005F0E80E0526010E066E052A76
:100C000004EF06F0D8900636052E02EF06F00650E7
:100C1000FF0A951646EF06F002BE1AEF06F00250E4
:100C200007E1280E015CD8B018EF06F01AEF06F0C5
:100C300046EF06F003500410D8B421EF06F023EF7E
:100C400006F035EF06F001C005F0E00E0526010EB6
:100C5000066E052A2EEF06F0D8900636052E2CEFEC
:100C600006F00650961246EF06F001C005F0E00EC1
:100C70000526010E066E052A40EF06F0D8900636CE
:100C8000052E3EEF06F00650FF0A9616120002BE31
:100C900055EF06F0025007E1080E015CD8B053EFA3
:100CA00006F055EF06F07FEF06F003500410D8B4BD
:100CB0005CEF06F05EEF06F06EEF06F001C005F0A7
:100CC000010E066E052A67EF06F0D8900636052E4F
:100CD00065EF06F0065080126DEF07F001C005F0D9
:100CE000010E066E052A77EF06F0D8900636052E1F
:100CF00075EF06F00650FF0A80166DEF07F002BE92
:100D00008DEF06F0025007E1100E015CD8B08BEFBA
:100D100006F08DEF06F0BBEF06F0F80E0126FF0E91
:100D2000022203500410D8B498EF06F09AEF06F0B0
:100D3000AAEF06F001C005F0010E066E052AA3EF2A
:100D400006F0D8900636052EA1EF06F00650811267
:100D50006DEF07F001C005F0010E066E052AB3EF36
:100D600006F0D8900636052EB1EF06F00650FF0AC1
:100D700081166DEF07F002BEC9EF06F0025007E1E1
:100D8000180E015CD8B0C7EF06F0C9EF06F0F7EF18
:100D900006F0F00E0126FF0E022203500410D8B414
:100DA000D4EF06F0D6EF06F0E6EF06F001C005F04E
:100DB000010E066E052ADFEF06F0D8900636052EE6
:100DC000DDEF06F0065082126DEF07F001C005F06E
:100DD000010E066E052AEFEF06F0D8900636052EB6
:100DE000EDEF06F00650FF0A82166DEF07F002BE27
:100DF00005EF07F0025007E1200E015CD8B003EFC9
:100E000007F005EF07F033EF07F0E80E0126FF0EBD
:100E1000022203500410D8B410EF07F012EF07F0CD
:100E200022EF07F001C005F0010E066E052A1BEF48
:100E300007F0D8900636052E19EF07F006508312FA
:100E40006DEF07F001C005F0010E066E052A2BEFCD
:100E500007F0D8900636052E29EF07F00650FF0A56
:100E600083166DEF07F002BE41EF07F0025007E175
:100E7000280E015CD8B03FEF07F041EF07F06DEFAF
:100E800007F0E00E0126FF0E022203500410D8B432
:100E90004CEF07F04EEF07F05EEF07F001C005F0F2
:100EA000010E066E052A57EF07F0D8900636052E7C
:100EB00055EF07F0065084126DEF07F001C005F002
:100EC000010E066E052A67EF07F0D8900636052E4C
:100ED00065EF07F00650FF0A8416120083CF06F074
:100EE0000F0E9512000E0A6EF80E93160AC001F04E
:100EF000010E026E012A7FEF07F0D8900236012E14
:100F00007DEF07F002509312070E81120AC001F024
:100F1000010E026E012A8FEF07F0D8900236012EE3
:100F20008DEF07F00250FF0A8116000E086E000ECA
:100F3000076E074A082A08BEA7EF07F0085009E124
:100F40000A0E075CD8A0A7EF07F0A9EF07F099EF0A
:100F500007F0000E096E09C001F0010E026E012AB1
:100F6000B4EF07F0D8900236012EB2EF07F002502E
:100F700083140009D8A4BFEF07F0C1EF07F0D9EF41
:100F800007F00A50040DF3500924016E010E026EA1
:100F9000000E036E012AD0EF07F0D8900236033618
:100FA000012ECDEF07F00250471203504812F3EF25
:100FB00007F00A50040DF3500924016E010E026E71
:100FC000000E036E012AE8EF07F0D89002360336D0
:100FD000012EE5EF07F0021C046E031C056E0450A1
:100FE000471605504816092A030E0964FAEF07F060
:100FF000FCEF07F0ABEF07F00A2A020E0A6403EFDA
:1010000008F005EF08F074EF07F04750451807E1C6
:1010100048504618D8A40FEF08F011EF08F014EF6D
:1010200008F050061AEF08F00A0E506E47C045F05F
:1010300048C046F05050D8A420EF08F022EF08F046
:1010400026EF08F045C049F046C04AF006C083FFCD
:10105000000E956E120015C00EF016C00FF0270E90
:10106000116E100E106EB3EC09F00E50300F17C059
:10107000D9FF18C0DAFFDF6E20EE01F01750D92635
:101080001850DA22270E046E100E036E15C001F000
:1010900016C002F023EC0AF001C00EF002C00FF0FF
:1010A000030E116EE80E106EB3EC09F00E50300F07
:1010B000DF6E20EE02F01750D9261850DA22030E08
:1010C000046EE80E036E15C001F016C002F023ECAA
:1010D0000AF001C00EF002C00FF0000E116E640E97
:1010E000106EB3EC09F00E50300FDF6E20EE03F0FF
:1010F0001750D9261850DA22000E046E640E036EC3
:1011000015C001F016C002F023EC0AF001C00EF089
:1011100002C00FF0000E116E0A0E106EB3EC09F053
:101120000E50300FDF6E20EE04F01750D926185005
:10113000DA2215C001F016C002F0000E046E0A0E8D
:10114000036E23EC0AF00150300FDF6E20EE05F045
:101150001750D9261850DA22000EDF6E1200076EE3
:10116000BEEF08F0010EC26ED7EF08F0090EC26E96
:10117000D7EF08F0110EC26ED7EF08F00750036EDC
:10118000046A0450000AD8B4C8EF08F0D7EF08F09A
:101190000350000AD8B4B2EF08F0010AD8B4B6EF91
:1011A00008F0030AD8B4BAEF08F0D7EF08F0C2820B
:1011B000C2B2DDEF08F0DFEF08F0D8EF08F0C3CFE0
:1011C00003F0060E046ED8900332042EE3EF08F00D
:1011D0000350C4CF05F0066AD89005360636D8907D
:1011E000053606360510016E0650026E1200000E1E
:1011F000AFEC08F001C008F002C009F0000E0B6E61
:101200000A0E0A6EF6EC0AF008C00EF009C00FF0E4
:10121000000E116ECC0E106EB3EC09F00E50236E62
:101220002350040DF3CF1BF0F4CF1CF0320E1B241F
:10123000246E000E1C20256E24C015F0166A1D0EAB
:10124000176E000E186E2BEC08F00C0E096E000ED7
:10125000D9EC0AF01F5087EC0AF0205087EC0AF016
:10126000215087EC0AF024C019F025C01AF01200B2
:10127000086E83CF07F0000E956E000E026E220EF0
:10128000016E000E046E000E036E47EC06F008C0FF
:1012900083FF000E026E210E016E000E046E010E21
:1012A000036E47EC06F0000E026E210E016E000E7A
:1012B000046E000E036E47EC06F007C083FF020EBB
:1012C0000818D8B466EF09F068EF09F070EF09F07C
:1012D0000804D8A46EEF09F070EF09F074EF09F07C
:1012E00009EC0BF076EF09F017EC0BF01200000E92
:1012F000026E220E016E000E046E000E036E20ECD4
:1013000005F0000E026E210E016E000E046E000E3E
:10131000036E20EC05F0000E956E09EC0BF009EC65
:101320000BF009EC0BF009EC0BF009EC0BF0380EAC
:1013300038EC09F009EC0BF009EC0BF0380E38EC46
:1013400009F009EC0BF0380E38EC09F0380E38ECE7
:1013500009F0060E38EC09F00C0E38EC09F0010E1D
:1013600038EC09F01200000E136E000E126E1050D1
:101370001110D8B4BEEF09F0C0EF09F0E8EF09F0A2
:10138000010E146EC8EF09F0D89010361136142AE9
:1013900011AECDEF09F0CFEF09F0C4EF09F0D8900E
:1013A0001236133610500E5C11500F58D8A0DBEFD8
:1013B00009F0DDEF09F0E2EF09F010500E5E115078
:1013C0000F5A1280D89011321032142ECFEF09F03C
:1013D00012C00EF013C00FF01200176E010ECB24D6
:1013E000086E096A000E092217C00AF00B6AF6ECB3
:1013F0000AF008C018F009C019F018C00EF019C0A2
:101400000FF0000E116E190E106EB3EC09F00EC045
:1014100018F00FC019F0FF0E1816030E191618C099
:1014200015F019C016F0D89016321532D890163231
:1014300015321550BE6E18C015F0030E151615386E
:10144000F00BBD12120003500410D8B42AEF0AF0BA
:101450002CEF0AF050EF0AF0010E056E34EF0AF09F
:10146000D89003360436052A04AE39EF0AF03BEF74
:101470000AF030EF0AF00350015C04500258D8A083
:1014800044EF0AF046EF0AF04AEF0AF00350015E1B
:101490000450025AD89004320332052E3BEF0AF072
:1014A00001C001F002C002F01200000E046E000E36
:1014B000036E7BEF0AF0000E056E280E056463EFE5
:1014C0000AF065EF0AF067EF0AF079EF0AF0000E14
:1014D000066E020E06646FEF0AF071EF0AF073EF0A
:1014E0000AF076EF0AF0062A69EF0AF0052A5DEFA6
:1014F0000AF0034A042A0150035C02500458D8A0A1
:1015000084EF0AF086EF0AF05BEF0AF01200076E34
:1015100083CF08F0000E956E000E026E220E016E53
:10152000000E046E010E036E47EC06F007C083FF49
:10153000000E026E210E016E000E046E010E036E8F
:1015400047EC06F0000E026E210E016E000E046ED6
:10155000000E036E47EC06F008C083FF17EC0BF09B
:101560001200000E0D6EC4EF0AF00D5009240B6E30
:10157000000E0A200C6E0BC0F6FF0CC0F7FF08002F
:10158000F55087EC0AF00D2A0D5009240B6E000E61
:101590000A200C6E0BC0F6FF0CC0F7FF0800F550D8
:1015A0000009D8A4D6EF0AF0D8EF0AF0B5EF0AF098
:1015B00012000B6E000E0A6E0B50D8A4E2EF0AF078
:1015C000E4EF0AF0E7EF0AF00950800F0A6E0B040F
:1015D000D8A4EDEF0AF0EFEF0AF0F2EF0AF00950AD
:1015E000C00F0A6E0A5038EC09F0120008500A02C7
:1015F000F3CF0CF0F4CF0DF008500B02F3500D2692
:1016000009500A02F3500D260CC008F00DC009F075
:101610001200000E026E17EC0BF0022A310E02646B
:1016200014EF0BF016EF0BF00BEF0BF01200000EA7
:10163000016E012A180E016420EF0BF022EF0BF06F
:1016400019EF0BF0120000EE45F00C0EEE6AE80602
:10165000FDE1000EF86E000123EF03F094929494E4
:10166000030ECA12CA840C0EBD120C0EBA1212005E
:1016700049C001F04AC002F01200070E93160F0E87
:0416800095121200AD
:020000040020DA
:08000000FFFFFFFFFFFFFFFF00
:020000040030CA
:0E000000FF027100FF8380FF0FC00FE00F4072
:00000001FF
