:020000040000FA
:040000003FEF0CF0D2
:100600000056616D6F7320696E69636961722100C4
:10061000436C6971756520656D2028312900467528
:100620006E63696F6E616E646F210054656D7065F5
:100630007261747572613A0054656D706F3A006D45
:10064000696E00430000000E506E100E4F6E000EDB
:100650003B6EB40E3A6E300E426E300E436E300E6C
:10066000446E000E486E000E476E070E926E000E2E
:10067000936E000E946E80EC0AF059EC0CF0010EB3
:10068000096E000EE2EC0BF0010E096E060E0A6E0A
:10069000BAEC0BF0010E096E010EE2EC0BF0100E3D
:1006A000096E060E0A6EBAEC0BF0F1EC07F054EC92
:1006B0000CF04F50011809E150500218D8B463EF04
:1006C00003F065EF03F03FEF03F054EC0CF001C0D2
:1006D0004FF002C050F04FA670EF03F072EF03F03E
:1006E0003FEF03F0010E41EC0AF00CEF04F0000EB6
:1006F000096E000EE2EC0BF02B0E096E060E0A6E70
:10070000BAEC0BF000EC0AF019C03AF01AC03BF05A
:10071000000E096E010EE2EC0BF0380E096E060EAB
:100720000A6EBAEC0BF0060E096E010EE2EC0BF04D
:10073000425090EC0BF0435090EC0BF0445090EC96
:100740000BF03F0E096E060E0A6EBAEC0BF0F1ECE0
:1007500007F054EC0CF04F50011809E1505002180A
:10076000D8B4B5EF03F0B7EF03F00CEF04F054EC9E
:100770000CF001C04FF002C050F04FA2C2EF03F0E6
:10078000C4EF03F0D8EF03F0390E4218D8A4CBEF32
:1007900003F0CDEF03F0D1EF03F0300E426E0CEF1B
:1007A00004F0422A640E4726000E48220CEF04F0A3
:1007B0004FAADDEF03F0DFEF03F0F3EF03F0390EA4
:1007C0004318D8A4E6EF03F0E8EF03F0ECEF03F0F2
:1007D000300E436E0CEF04F0432A0A0E4726000E3B
:1007E00048220CEF04F050A2F8EF03F0FAEF03F008
:1007F0000CEF04F0390E4418D8A401EF04F003EF15
:1008000004F007EF04F0300E446E0CEF04F0442ABD
:10081000474A482A0CEF04F04FA011EF04F013EF01
:1008200004F077EF03F04FA018EF04F01AEF04F094
:10083000ECEF04F0010E41EC0AF00A0E3A242E6EA1
:10084000000E3B202F6EF60E3A24306EFF0E3B203A
:10085000316E4AEC0CF01E0EF6EC0AF08168E3EF04
:1008600004F0020E096E000EE2EC0BF01E0E096E93
:10087000060E0A6EBAEC0BF0090E096E010EE2ECE0
:100880000BF047C015F048C016F0280E176E000E8A
:10089000186E34EC09F02A5090EC0BF02B5090ECD1
:1008A0000BF02C5090EC0BF03F0E096E060E0A6E0A
:1008B000BAEC0BF04706D8A04806010EB8EC09F0D8
:1008C00001C008F002C009F0000E0B6E0A0E0A6E9D
:1008D000FFEC0BF0D8900930266E0830326E26C03F
:1008E00033F0E80E3224086EFE0E3320096E000E3F
:1008F0000B6EDE0E0A6EFFEC0BF008C00EF009C0A6
:100900000FF0000E116E2E0E106EBCEC0AF0180ED9
:100910000E24456E010E0F20466E010E096E010E6B
:10092000E2EC0BF045C015F046C016F0340E176E21
:10093000000E186E34EC09F0355090EC0BF0365088
:1009400090EC0BF0375090EC0BF02C0E90EC0BF081
:10095000385090EC0BF0430E096E060E0A6EBAEC9E
:100960000BF0030E026EE80E016E5EEC0BF02EC073
:1009700008F02FC009F0000E0B6E0A0E0A6EFFEC95
:100980000BF04550085C46500958D8B0CAEF04F047
:10099000CCEF04F0CDEF04F0829A30C008F031C003
:1009A00009F0000E0B6E0A0E0A6EFFEC0BF00850F9
:1009B000455C09504658D8B0E0EF04F0E2EF04F08F
:1009C000E3EF04F0828A47504810D8A4EAEF04F01D
:1009D000ECEF04F031EF04F0010E41EC0AF0000EF0
:1009E000816E829A9490000EF6EC0AF0000E106E62
:1009F000640E0F6E12EC0CF0000E3D6E000E3C6E9D
:100A00003DBE0CEF05F03D5009E1020E3C5CD8A064
:100A10000CEF05F00EEF05F010EF05F02FEF05F0ED
:100A2000000E4A6E010E496E4ABE21EF05F04A5093
:100A300006E14904D8B01FEF05F021EF05F023EFE0
:100A400005F02AEF05F09482000E026E640E016E2E
:100A50005EEC0BF094923C4A3D2A00EF05F0030E49
:100A6000026EE80E016E5EEC0BF0000E3F6E000EA3
:100A70003E6E3FBE45EF05F03F5009E1020E3E5C81
:100A8000D8A045EF05F047EF05F049EF05F068EF16
:100A900005F0000E4C6E010E4B6E4CBE5AEF05F089
:100AA0004C5006E14B04D8B058EF05F05AEF05F072
:100AB0005CEF05F063EF05F09482000E026E640EA9
:100AC000016E5EEC0BF094923E4A3F2A39EF05F03E
:100AD000030E026EE80E016E5EEC0BF0000E416E2E
:100AE000000E406E41BE7EEF05F0415009E1020E5E
:100AF000405CD8A07EEF05F080EF05F082EF05F0B6
:100B00003FEF03F0000E4E6E010E4D6E4EBE93EFA2
:100B100005F04E5006E14D04D8B091EF05F093EF8B
:100B200005F095EF05F09CEF05F09482000E026E43
:100B3000640E016E5EEC0BF09492404A412A72EF13
:100B400005F000EF00F002BEB1EF05F0025007E142
:100B5000080E015CD8B0AFEF05F0B1EF05F0DBEFA8
:100B600005F003500410D8B4B8EF05F0BAEF05F063
:100B7000CAEF05F001C005F0010E066E052AC3EFAD
:100B800005F0D8900636052EC1EF05F006509212FA
:100B9000C9EF06F001C005F0010E066E052AD3EF7D
:100BA00005F0D8900636052ED1EF05F00650FF0A65
:100BB0009216C9EF06F002BEE9EF05F0025007E118
:100BC000100E015CD8B0E7EF05F0E9EF05F017EF84
:100BD00006F003500410D8B4F0EF05F0F2EF05F082
:100BE00004EF06F001C005F0F80E0526010E066EB2
:100BF000052AFDEF05F0D8900636052EFBEF05F02F
:100C000006509312C9EF06F001C005F0F80E052654
:100C1000010E066E052A0FEF06F0D8900636052E57
:100C20000DEF06F00650FF0A9316C9EF06F002BE5C
:100C300025EF06F0025007E1180E015CD8B023EF53
:100C400006F025EF06F053EF06F003500410D8B479
:100C50002CEF06F02EEF06F040EF06F001C005F095
:100C6000F00E0526010E066E052A39EF06F0D89023
:100C70000636052E37EF06F006509412C9EF06F03F
:100C800001C005F0F00E0526010E066E052A4BEF99
:100C900006F0D8900636052E49EF06F00650FF0AFA
:100CA0009416C9EF06F002BE61EF06F0025007E1AC
:100CB000200E015CD8B05FEF06F061EF06F08FEF19
:100CC00006F003500410D8B468EF06F06AEF06F09F
:100CD0007CEF06F001C005F0E80E0526010E066E59
:100CE000052A75EF06F0D8900636052E73EF06F04C
:100CF00006509512C9EF06F001C005F0E80E052672
:100D0000010E066E052A87EF06F0D8900636052EEE
:100D100085EF06F00650FF0A9516C9EF06F002BEF1
:100D20009DEF06F0025007E1280E015CD8B09BEF62
:100D300006F09DEF06F0C9EF06F003500410D8B49A
:100D4000A4EF06F0A6EF06F0B8EF06F001C005F03C
:100D5000E00E0526010E066E052AB1EF06F0D890CA
:100D60000636052EAFEF06F006509612C9EF06F0D4
:100D700001C005F0E00E0526010E066E052AC3EF40
:100D800006F0D8900636052EC1EF06F00650FF0A91
:100D90009616120002BED8EF06F0025007E1080EC8
:100DA000015CD8B0D6EF06F0D8EF06F002EF07F0FE
:100DB00003500410D8B4DFEF06F0E1EF06F0F1EFD6
:100DC00006F001C005F0010E066E052AEAEF06F0F6
:100DD000D8900636052EE8EF06F006508012F0EFA8
:100DE00007F001C005F0010E066E052AFAEF06F0C5
:100DF000D8900636052EF8EF06F00650FF0A80164A
:100E0000F0EF07F002BE10EF07F0025007E1100EFE
:100E1000015CD8B00EEF07F010EF07F03EEF07F0DF
:100E2000F80E0126FF0E022203500410D8B41BEF67
:100E300007F01DEF07F02DEF07F001C005F0010EE0
:100E4000066E052A26EF07F0D8900636052E24EF09
:100E500007F006508112F0EF07F001C005F0010E17
:100E6000066E052A36EF07F0D8900636052E34EFC9
:100E700007F00650FF0A8116F0EF07F002BE4CEFB4
:100E800007F0025007E1180E015CD8B04AEF07F0F6
:100E90004CEF07F07AEF07F0F00E0126FF0E02226A
:100EA00003500410D8B457EF07F059EF07F069EF7B
:100EB00007F001C005F0010E066E052A62EF07F08B
:100EC000D8900636052E60EF07F006508212F0EF3C
:100ED00007F001C005F0010E066E052A72EF07F05B
:100EE000D8900636052E70EF07F00650FF0A8216DE
:100EF000F0EF07F002BE88EF07F0025007E1200E86
:100F0000015CD8B086EF07F088EF07F0B6EF07F086
:100F1000E80E0126FF0E022203500410D8B493EF0E
:100F200007F095EF07F0A5EF07F001C005F0010EFF
:100F3000066E052A9EEF07F0D8900636052E9CEF28
:100F400007F006508312F0EF07F001C005F0010E24
:100F5000066E052AAEEF07F0D8900636052EACEFE8
:100F600007F00650FF0A8316F0EF07F002BEC4EF49
:100F700007F0025007E1280E015CD8B0C2EF07F07D
:100F8000C4EF07F0F0EF07F0E00E0126FF0E02229B
:100F900003500410D8B4CFEF07F0D1EF07F0E1EF22
:100FA00007F001C005F0010E066E052ADAEF07F022
:100FB000D8900636052ED8EF07F006508412F0EFD1
:100FC00007F001C005F0010E066E052AEAEF07F0F2
:100FD000D8900636052EE8EF07F00650FF0A841673
:100FE000120083CF06F00F0E9512000E0A6EF80E57
:100FF00093160AC001F0010E026E012A02EF08F0FA
:10100000D8900236012E00EF08F002509312070E1E
:1010100081120AC001F0010E026E012A12EF08F0DF
:10102000D8900236012E10EF08F00250FF0A811608
:10103000000E086E000E076E074A082A08BE2AEF47
:1010400008F0085009E10A0E075CD8A02AEF08F062
:101050002CEF08F01CEF08F0000E096E09C001F03B
:10106000010E026E012A37EF08F0D8900236012EE9
:1010700035EF08F0025083140009D8A442EF08F0BD
:1010800044EF08F05CEF08F00A50040DF350092417
:10109000016E010E026E000E036E012A53EF08F07E
:1010A000D89002360336012E50EF08F0025053124A
:1010B0000350541276EF08F00A50040DF35009243F
:1010C000016E010E026E000E036E012A6BEF08F036
:1010D000D89002360336012E68EF08F0021C046E29
:1010E000031C056E0450531605505416092A030EAE
:1010F00009647DEF08F07FEF08F02EEF08F00A2A70
:10110000020E0A6486EF08F088EF08F0F7EF07F0A8
:101110005350511807E154505218D8A492EF08F0D8
:1011200094EF08F097EF08F05C069DEF08F00A0EC8
:101130005C6E53C051F054C052F05C50D8A4A3EF81
:1011400008F0A5EF08F0A9EF08F051C055F052C023
:1011500056F006C083FF000E956E1200000E0A6E58
:1011600008BEB7EF08F0B5EF08F0C1EF08F0081EB1
:10117000071E061E056C000E062207220822010E1D
:101180000A6E04BEC8EF08F0C6EF08F0D2EF08F010
:10119000041E031E021E016C000E02220322042202
:1011A000010E0A1A000E0B6E000E0C6E000E0D6E74
:1011B000000E0E6E0550061007100810D8B4E3EFAD
:1011C00008F0E5EF08F01BEF09F0010E096EEFEFF4
:1011D00008F0D8900536063607360836092A08AED4
:1011E000F4EF08F0F6EF08F0E9EF08F0D8900B36CE
:1011F0000C360D360E360550015C0650025807506D
:10120000035808500458D8A008EF09F00AEF09F075
:1012100013EF09F00550015E0650025A0750035AB9
:101220000850045A0B80D890083207320632053233
:10123000092EF6EF08F00A50D8B421EF09F023EF99
:1012400009F02BEF09F00E1E0D1E0C1E0B6C000E8C
:101250000C220D220E220BC001F00CC002F00DC0BA
:1012600003F00EC004F0120015C00EF016C00FF00F
:10127000270E116E100E106EBCEC0AF00E50300FDF
:1012800017C0D9FF18C0DAFFDF6E20EE01F017504B
:10129000D9261850DA22270E046E100E036E15C0E0
:1012A00001F016C002F02CEC0BF001C00EF002C0F1
:1012B0000FF0030E116EE80E106EBCEC0AF00E502B
:1012C000300FDF6E20EE02F01750D9261850DA22C8
:1012D000030E046EE80E036E15C001F016C002F096
:1012E0002CEC0BF001C00EF002C00FF0000E116EDE
:1012F000640E106EBCEC0AF00E50300FDF6E20EE64
:1013000003F01750D9261850DA22000E046E640E2E
:10131000036E15C001F016C002F02CEC0BF001C0FA
:101320000EF002C00FF0000E116E0A0E106EBCEC33
:101330000AF00E50300FDF6E20EE04F01750D92661
:101340001850DA2215C001F016C002F0000E046E2B
:101350000A0E036E2CEC0BF00150300FDF6E20EE06
:1013600005F01750D9261850DA22000EDF6E120051
:10137000076EC7EF09F0010EC26EE0EF09F0090E2B
:10138000C26EE0EF09F0110EC26EE0EF09F00750F7
:10139000036E046A0450000AD8B4D1EF09F0E0EFFC
:1013A00009F00350000AD8B4BBEF09F0010AD8B421
:1013B000BFEF09F0030AD8B4C3EF09F0E0EF09F07A
:1013C000C282C2B2E6EF09F0E8EF09F0E1EF09F0FE
:1013D000C3CF03F0060E046ED8900332042EECEF58
:1013E00009F00350C4CF05F0066AD89005360636DA
:1013F000D890053606360510016E0650026E1200B2
:10140000000EB8EC09F001C008F002C009F0000EAF
:101410000B6E0A0E0A6EFFEC0BF008C00EF009C04E
:101420000FF0000E116ECC0E106EBCEC0AF00E50D8
:10143000236E2350040DF3CF1BF0F4CF1CF0320EBB
:101440001B24246E000E1C20256E24C015F0166A85
:101450001D0E176E000E186E34EC09F00C0E096E9E
:10146000000EE2EC0BF01F5090EC0BF0205090ECD3
:101470000BF0215090EC0BF024C019F025C01AF0AD
:101480001200086E83CF07F0000E956E000E026EFC
:10149000220E016E000E046E000E036ECAEC06F002
:1014A00008C083FF000E026E210E016E000E046E56
:1014B000010E036ECAEC06F0000E026E210E016EE4
:1014C000000E046E000E036ECAEC06F007C083FF28
:1014D000020E0818D8B46FEF0AF071EF0AF079EF36
:1014E0000AF00804D8A477EF0AF079EF0AF07DEF4C
:1014F0000AF025EC0CF07FEF0AF033EC0CF0120050
:10150000000E026E220E016E000E046E000E036EBF
:10151000A3EC05F0000E026E210E016E000E046EAB
:10152000000E036EA3EC05F0000E956E25EC0CF09A
:1015300025EC0CF025EC0CF025EC0CF025EC0CF077
:10154000380E41EC0AF025EC0CF025EC0CF0380ECE
:1015500041EC0AF025EC0CF0380E41EC0AF0380EA4
:1015600041EC0AF0060E41EC0AF00C0E41EC0AF0D8
:10157000010E41EC0AF01200000E136E000E126E06
:1015800010501110D8B4C7EF0AF0C9EF0AF0F1EF0C
:101590000AF0010E146ED1EF0AF0D8901036113611
:1015A000142A11AED6EF0AF0D8EF0AF0CDEF0AF008
:1015B000D8901236133610500E5C11500F58D8A028
:1015C000E4EF0AF0E6EF0AF0EBEF0AF010500E5EDF
:1015D00011500F5A1280D89011321032142ED8EFB9
:1015E0000AF012C00EF013C00FF01200176E010EB9
:1015F000CB24086E096A000E092217C00AF00B6A94
:10160000FFEC0BF008C018F009C019F018C00EF07C
:1016100019C00FF0000E116E190E106EBCEC0AF01E
:101620000EC018F00FC019F0FF0E1816030E191691
:1016300018C015F019C016F0D89016321532D8908F
:10164000163215321550BE6E18C015F0030E151661
:101650001538F00BBD12120003500410D8B433EF4C
:101660000BF035EF0BF059EF0BF0010E056E3DEF6F
:101670000BF0D89003360436052A04AE42EF0BF087
:1016800044EF0BF039EF0BF00350015C04500258AB
:10169000D8A04DEF0BF04FEF0BF053EF0BF00350D2
:1016A000015E0450025AD89004320332052E44EFF2
:1016B0000BF001C001F002C002F01200000E046E37
:1016C000000E036E84EF0BF0000E056E280E05640D
:1016D0006CEF0BF06EEF0BF070EF0BF082EF0BF096
:1016E000000E066E020E066478EF0BF07AEF0BF038
:1016F0007CEF0BF07FEF0BF0062A72EF0BF0052A60
:1017000066EF0BF0034A042A0150035C02500458B0
:10171000D8A08DEF0BF08FEF0BF064EF0BF0120001
:10172000076E83CF08F0000E956E000E026E220E3B
:10173000016E000E046E010E036ECAEC06F007C0C7
:1017400083FF000E026E210E016E000E046E010E6C
:10175000036ECAEC06F0000E026E210E016E000E42
:10176000046E000E036ECAEC06F008C083FF33EC73
:101770000CF01200000E0D6ECDEF0BF00D50092491
:101780000B6E000E0A200C6E0BC0F6FF0CC0F7FFAC
:101790000800F55090EC0BF00D2A0D5009240B6E4B
:1017A000000E0A200C6E0BC0F6FF0CC0F7FF0800FD
:1017B000F5500009D8A4DFEF0BF0E1EF0BF0BEEF1E
:1017C0000BF012000B6E000E0A6E0B50D8A4EBEF5C
:1017D0000BF0EDEF0BF0F0EF0BF00950800F0A6EFD
:1017E0000B04D8A4F6EF0BF0F8EF0BF0FBEF0BF0C7
:1017F0000950C00F0A6E0A5041EC0AF0120008505E
:101800000A02F3CF0CF0F4CF0DF008500B02F350A6
:101810000D2609500A02F3500D260CC008F00DC029
:1018200009F01200480E016EE80E026E010E036E02
:10183000000E046E0FC005F010C006F0076A086ABB
:10184000AEEC08F00104CB6E1200000E026E33EC19
:101850000CF0022A310E026430EF0CF032EF0CF083
:1018600027EF0CF01200000E016E012A180E016421
:101870003CEF0CF03EEF0CF035EF0CF0120000EEF8
:1018800051F00C0EEE6AE806FDE1000EF86E000164
:1018900023EF03F094929494030ECA12CA840C0EA0
:1018A000BD120C0EBA12120055C001F056C002F063
:0C18B0001200070E93160F0E9512120086
:020000040020DA
:08000000FFFFFFFFFFFFFFFF00
:020000040030CA
:0E000000FF027100FF8380FF0FC00FE00F4072
:00000001FF
