:020000040000FA
:0400000045EF0CF0CC
:100600000056616D6F7320696E69636961722100C4
:10061000436C6971756520656D2028312900467528
:100620006E63696F6E616E646F210054656D7065F5
:100630007261747572613A0054656D706F3A006D45
:10064000696E00430000000E506E100E4F6E000EDB
:100650003B6EB40E3A6E300E426E300E436E300E6C
:10066000446E000E486E000E476E070E926E000E2E
:10067000936E000E946E86EC0AF05FEC0CF0010EA7
:10068000096E000EE8EC0BF0010E096E060E0A6E04
:10069000C0EC0BF0010E096E010EE8EC0BF0100E31
:1006A000096E060E0A6EC0EC0BF0F7EC07F05AEC80
:1006B0000CF04F50011809E150500218D8B463EF04
:1006C00003F065EF03F03FEF03F05AEC0CF001C0CC
:1006D0004FF002C050F04FA670EF03F072EF03F03E
:1006E0003FEF03F0010E47EC0AF00CEF04F0000EB0
:1006F000096E000EE8EC0BF02B0E096E060E0A6E6A
:10070000C0EC0BF006EC0AF019C03AF01AC03BF04E
:10071000000E096E010EE8EC0BF0380E096E060EA5
:100720000A6EC0EC0BF0060E096E010EE8EC0BF041
:10073000425096EC0BF0435096EC0BF0445096EC84
:100740000BF03F0E096E060E0A6EC0EC0BF0F7ECD4
:1007500007F05AEC0CF04F50011809E15050021804
:10076000D8B4B5EF03F0B7EF03F00CEF04F05AEC98
:100770000CF001C04FF002C050F04FA2C2EF03F0E6
:10078000C4EF03F0D8EF03F0390E4218D8A4CBEF32
:1007900003F0CDEF03F0D1EF03F0300E426E0CEF1B
:1007A00004F0422A640E4726000E48220CEF04F0A3
:1007B0004FAADDEF03F0DFEF03F0F3EF03F0390EA4
:1007C0004318D8A4E6EF03F0E8EF03F0ECEF03F0F2
:1007D000300E436E0CEF04F0432A0A0E4726000E3B
:1007E00048220CEF04F050A2F8EF03F0FAEF03F008
:1007F0000CEF04F0390E4418D8A401EF04F003EF15
:1008000004F007EF04F0300E446E0CEF04F0442ABD
:10081000474A482A0CEF04F04FA011EF04F013EF01
:1008200004F077EF03F04FA018EF04F01AEF04F094
:10083000F2EF04F0010E47EC0AF00A0E3A242E6E95
:10084000000E3B202F6EF60E3A24306EFF0E3B203A
:10085000316E50EC0CF01E0EFCEC0AF08168E9EFF2
:1008600004F0020E096E000EE8EC0BF01E0E096E8D
:10087000060E0A6EC0EC0BF0090E096E010EE8ECD4
:100880000BF047C015F048C016F0280E176E000E8A
:10089000186E3AEC09F02A5096EC0BF02B5096ECBF
:1008A0000BF02C5096EC0BF03F0E096E060E0A6E04
:1008B000C0EC0BF04706D8A04806010EBEEC09F0CC
:1008C00001C008F002C009F0000E0B6E0A0E0A6E9D
:1008D00005EC0CF0D8900930266E0830326E26C038
:1008E00033F0E80E3224086EFE0E3320096E000E3F
:1008F0000B6EDE0E0A6E05EC0CF008C00EF009C09F
:100900000FF0000E116E2E0E106EC2EC0AF0180ED3
:100910000E24456E010E0F20466E010E096E010E6B
:10092000E8EC0BF045C015F046C016F0340E176E1B
:10093000000E186E3AEC09F0355096EC0BF036507C
:1009400096EC0BF0375096EC0BF02C0E96EC0BF06F
:10095000385096EC0BF0430E096E060E0A6EC0EC92
:100960000BF0030E026EE80E016E64EC0BF02EC06D
:1009700008F02FC009F0000E0B6E0A0E0A6E05EC8F
:100980000CF04550085C46500958D8B0CAEF04F046
:10099000CCEF04F0D3EF04F0000E026E640E016E93
:1009A00064EC0BF0829A30C008F031C009F0000E00
:1009B0000B6E0A0E0A6E05EC0CF00850455C0950EF
:1009C0004658D8B0E6EF04F0E8EF04F0E9EF04F0A1
:1009D000828A47504810D8A4F0EF04F0F2EF04F0F8
:1009E00031EF04F0010E47EC0AF0000E816E829A9E
:1009F0009490000EFCEC0AF0000E106E640E0F6E68
:100A000018EC0CF0000E3D6E000E3C6E3DBE12EF79
:100A100005F03D5009E1020E3C5CD8A012EF05F054
:100A200014EF05F016EF05F035EF05F0000E4A6EF5
:100A3000010E496E4ABE27EF05F04A5006E149040F
:100A4000D8B025EF05F027EF05F029EF05F030EFDE
:100A500005F09482000E026E640E016E64EC0BF0E1
:100A600094923C4A3D2A06EF05F0030E026EE80E12
:100A7000016E64EC0BF0000E3F6E000E3E6E3FBE4A
:100A80004BEF05F03F5009E1020E3E5CD8A04BEF62
:100A900005F04DEF05F04FEF05F06EEF05F0000E9D
:100AA0004C6E010E4B6E4CBE60EF05F04C5006E1F3
:100AB0004B04D8B05EEF05F060EF05F062EF05F093
:100AC00069EF05F09482000E026E640E016E64EC14
:100AD0000BF094923E4A3F2A3FEF05F0030E026E60
:100AE000E80E016E64EC0BF0000E416E000E406EDD
:100AF00041BE84EF05F0415009E1020E405CD8A0F0
:100B000084EF05F086EF05F088EF05F03FEF03F086
:100B1000000E4E6E010E4D6E4EBE99EF05F04E501A
:100B200006E14D04D8B097EF05F099EF05F09BEF83
:100B300005F0A2EF05F09482000E026E640E016EC5
:100B400064EC0BF09492404A412A78EF05F000EFF4
:100B500000F002BEB7EF05F0025007E1080E015C9D
:100B6000D8B0B5EF05F0B7EF05F0E1EF05F00350B1
:100B70000410D8B4BEEF05F0C0EF05F0D0EF05F0DB
:100B800001C005F0010E066E052AC9EF05F0D890E8
:100B90000636052EC7EF05F006509212CFEF06F08D
:100BA00001C005F0010E066E052AD9EF05F0D890B8
:100BB0000636052ED7EF05F00650FF0A9216CFEF46
:100BC00006F002BEEFEF05F0025007E1100E015CE7
:100BD000D8B0EDEF05F0EFEF05F01DEF06F0035094
:100BE0000410D8B4F6EF05F0F8EF05F00AEF06F0C0
:100BF00001C005F0F80E0526010E066E052A03EF6A
:100C000006F0D8900636052E01EF06F00650931236
:100C1000CFEF06F001C005F0F80E0526010E066EB6
:100C2000052A15EF06F0D8900636052E13EF06F0CC
:100C30000650FF0A9316CFEF06F002BE2BEF06F028
:100C4000025007E1180E015CD8B029EF06F02BEF37
:100C500006F059EF06F003500410D8B432EF06F056
:100C600034EF06F046EF06F001C005F0F00E052661
:100C7000010E066E052A3FEF06F0D8900636052EC7
:100C80003DEF06F006509412CFEF06F001C005F0DC
:100C9000F00E0526010E066E052A51EF06F0D890DB
:100CA0000636052E4FEF06F00650FF0A9416CFEFDA
:100CB00006F002BE67EF06F0025007E1200E015C6D
:100CC000D8B065EF06F067EF06F095EF06F0035039
:100CD0000410D8B46EEF06F070EF06F082EF06F065
:100CE00001C005F0E80E0526010E066E052A7BEF11
:100CF00006F0D8900636052E79EF06F006509512CC
:100D0000CFEF06F001C005F0E80E0526010E066ED5
:100D1000052A8DEF06F0D8900636052E8BEF06F0EB
:100D20000650FF0A9516CFEF06F002BEA3EF06F0BD
:100D3000025007E1280E015CD8B0A1EF06F0A3EF46
:100D400006F0CFEF06F003500410D8B4AAEF06F077
:100D5000ACEF06F0BEEF06F001C005F0E00E052690
:100D6000010E066E052AB7EF06F0D8900636052E5E
:100D7000B5EF06F006509612CFEF06F001C005F071
:100D8000E00E0526010E066E052AC9EF06F0D89082
:100D90000636052EC7EF06F00650FF0A961612001B
:100DA00002BEDEEF06F0025007E1080E015CD8B08B
:100DB000DCEF06F0DEEF06F008EF07F0035004105A
:100DC000D8B4E5EF06F0E7EF06F0F7EF06F001C064
:100DD00005F0010E066E052AF0EF06F0D8900636F3
:100DE000052EEEEF06F006508012F6EF07F001C078
:100DF00005F0010E066E052A00EF07F0D8900636C2
:100E0000052EFEEF06F00650FF0A8016F6EF07F0FB
:100E100002BE16EF07F0025007E1100E015CD8B0D9
:100E200014EF07F016EF07F044EF07F0F80E012675
:100E3000FF0E022203500410D8B421EF07F023EF75
:100E400007F033EF07F001C005F0010E066E052A2A
:100E50002CEF07F0D8900636052E2AEF07F0065043
:100E60008112F6EF07F001C005F0010E066E052AAB
:100E70003CEF07F0D8900636052E3AEF07F0065003
:100E8000FF0A8116F6EF07F002BE52EF07F002509C
:100E900007E1180E015CD8B050EF07F052EF07F0F1
:100EA00080EF07F0F00E0126FF0E0222035004101F
:100EB000D8B45DEF07F05FEF07F06FEF07F001C008
:100EC00005F0010E066E052A68EF07F0D890063689
:100ED000052E66EF07F006508212F6EF07F001C00C
:100EE00005F0010E066E052A78EF07F0D890063659
:100EF000052E76EF07F00650FF0A8216F6EF07F090
:100F000002BE8EEF07F0025007E1200E015CD8B060
:100F10008CEF07F08EEF07F0BCEF07F0E80E01262C
:100F2000FF0E022203500410D8B499EF07F09BEF94
:100F300007F0ABEF07F001C005F0010E066E052AC1
:100F4000A4EF07F0D8900636052EA2EF07F0065062
:100F50008312F6EF07F001C005F0010E066E052AB8
:100F6000B4EF07F0D8900636052EB2EF07F0065022
:100F7000FF0A8316F6EF07F002BECAEF07F0025031
:100F800007E1280E015CD8B0C8EF07F0CAEF07F000
:100F9000F6EF07F0E00E0126FF0E022203500410C8
:100FA000D8B4D5EF07F0D7EF07F0E7EF07F001C0AF
:100FB00005F0010E066E052AE0EF07F0D890063620
:100FC000052EDEEF07F006508412F6EF07F001C0A1
:100FD00005F0010E066E052AF0EF07F0D8900636F0
:100FE000052EEEEF07F00650FF0A8416120083CF9D
:100FF00006F00F0E9512000E0A6EF80E93160AC038
:1010000001F0010E026E012A08EF08F0D8900236B6
:10101000012E06EF08F002509312070E81120AC04B
:1010200001F0010E026E012A18EF08F0D890023686
:10103000012E16EF08F00250FF0A8116000E086E0E
:10104000000E076E074A082A08BE30EF08F0085065
:1010500009E10A0E075CD8A030EF08F032EF08F083
:1010600022EF08F0000E096E09C001F0010E026EB9
:10107000012A3DEF08F0D8900236012E3BEF08F030
:10108000025083140009D8A448EF08F04AEF08F092
:1010900062EF08F00A50040DF3500924016E010EAE
:1010A000026E000E036E012A59EF08F0D890023646
:1010B0000336012E56EF08F002505312035054121B
:1010C0007CEF08F00A50040DF3500924016E010E64
:1010D000026E000E036E012A71EF08F0D8900236FE
:1010E0000336012E6EEF08F0021C046E031C056E21
:1010F0000450531605505416092A030E096483EF51
:1011000008F085EF08F034EF08F00A2A020E0A64AE
:101110008CEF08F08EEF08F0FDEF07F053505118F8
:1011200007E154505218D8A498EF08F09AEF08F04D
:101130009DEF08F05C06A3EF08F00A0E5C6E53C04A
:1011400051F054C052F05C50D8A4A9EF08F0ABEFB6
:1011500008F0AFEF08F051C055F052C056F006C08D
:1011600083FF000E956E1200000E0A6E08BEBDEFE2
:1011700008F0BBEF08F0C7EF08F0081E071E061EB8
:10118000056C000E062207220822010E0A6E04BE1C
:10119000CEEF08F0CCEF08F0D8EF08F0041E031EE5
:1011A000021E016C000E022203220422010E0A1A02
:1011B000000E0B6E000E0C6E000E0D6E000E0E6E0D
:1011C0000550061007100810D8B4E9EF08F0EBEF4F
:1011D00008F021EF09F0010E096EF5EF08F0D89044
:1011E0000536063607360836092A08AEFAEF08F043
:1011F000FCEF08F0EFEF08F0D8900B360C360D3608
:101200000E360550015C065002580750035808502E
:101210000458D8A00EEF09F010EF09F019EF09F00B
:101220000550015E0650025A0750035A0850045AEE
:101230000B80D8900832073206320532092EFCEFB7
:1012400008F00A50D8B427EF09F029EF09F031EF80
:1012500009F00E1E0D1E0C1E0B6C000E0C220D2232
:101260000E220BC001F00CC002F00DC003F00EC046
:1012700004F0120015C00EF016C00FF0270E116E0C
:10128000100E106EC2EC0AF00E50300F17C0D9FFCE
:1012900018C0DAFFDF6E20EE01F01750D926185083
:1012A000DA22270E046E100E036E15C001F016C070
:1012B00002F032EC0BF001C00EF002C00FF0030E92
:1012C000116EE80E106EC2EC0AF00E50300FDF6E99
:1012D00020EE02F01750D9261850DA22030E046EC1
:1012E000E80E036E15C001F016C002F032EC0BF0F0
:1012F00001C00EF002C00FF0000E116E640E106EF1
:10130000C2EC0AF00E50300FDF6E20EE03F01750E3
:10131000D9261850DA22000E046E640E036E15C032
:1013200001F016C002F032EC0BF001C00EF002C06A
:101330000FF0000E116E0A0E106EC2EC0AF00E5085
:10134000300FDF6E20EE04F01750D9261850DA2245
:1013500015C001F016C002F0000E046E0A0E036EF6
:1013600032EC0BF00150300FDF6E20EE05F017501D
:10137000D9261850DA22000EDF6E1200076ECDEF6C
:1013800009F0010EC26EE6EF09F0090EC26EE6EF3B
:1013900009F0110EC26EE6EF09F00750036E046A01
:1013A0000450000AD8B4D7EF09F0E6EF09F0035073
:1013B000000AD8B4C1EF09F0010AD8B4C5EF09F0AA
:1013C000030AD8B4C9EF09F0E6EF09F0C282C2B24D
:1013D000ECEF09F0EEEF09F0E7EF09F0C3CF03F00F
:1013E000060E046ED8900332042EF2EF09F003507B
:1013F000C4CF05F0066AD89005360636D890053673
:1014000006360510016E0650026E1200000EBEEC8C
:1014100009F001C008F002C009F0000E0B6E0A0EC0
:101420000A6E05EC0CF008C00EF009C00FF0000EBB
:10143000116ECC0E106EC2EC0AF00E50236E2350CB
:10144000040DF3CF1BF0F4CF1CF0320E1B24246EDE
:10145000000E1C20256E24C015F0166A1D0E176E96
:10146000000E186E3AEC09F00C0E096E000EE8EC56
:101470000BF01F5096EC0BF0205096EC0BF0215027
:1014800096EC0BF024C019F025C01AF01200086E7B
:1014900083CF07F0000E956E000E026E220E016ED5
:1014A000000E046E000E036ED0EC06F008C083FF41
:1014B000000E026E210E016E000E046E010E036E10
:1014C000D0EC06F0000E026E210E016E000E046ECE
:1014D000000E036ED0EC06F007C083FF020E081862
:1014E000D8B475EF0AF077EF0AF07FEF0AF008043E
:1014F000D8A47DEF0AF07FEF0AF083EF0AF02BEC1F
:101500000CF085EF0AF039EC0CF01200000E026EC0
:10151000220E016E000E046E000E036EA9EC05F0A3
:10152000000E026E210E016E000E046E000E036EA0
:10153000A9EC05F0000E956E2BEC0CF02BEC0CF0EA
:101540002BEC0CF02BEC0CF02BEC0CF0380E47ECE9
:101550000AF02BEC0CF02BEC0CF0380E47EC0AF0F8
:101560002BEC0CF0380E47EC0AF0380E47EC0AF082
:10157000060E47EC0AF00C0E47EC0AF0010E47ECA1
:101580000AF01200000E136E000E126E10501110B1
:10159000D8B4CDEF0AF0CFEF0AF0F7EF0AF0010E62
:1015A000146ED7EF0AF0D89010361136142A11AE07
:1015B000DCEF0AF0DEEF0AF0D3EF0AF0D890123633
:1015C000133610500E5C11500F58D8A0EAEF0AF0F5
:1015D000ECEF0AF0F1EF0AF010500E5E11500F5AC6
:1015E0001280D89011321032142EDEEF0AF012C0A1
:1015F0000EF013C00FF01200176E010ECB24086E10
:10160000096A000E092217C00AF00B6A05EC0CF0FB
:1016100008C018F009C019F018C00EF019C00FF07A
:10162000000E116E190E106EC2EC0AF00EC018F00A
:101630000FC019F0FF0E1816030E191618C015F07A
:1016400019C016F0D89016321532D89016321532CD
:101650001550BE6E18C015F0030E15161538F00B98
:10166000BD12120003500410D8B439EF0BF03BEF59
:101670000BF05FEF0BF0010E056E43EF0BF0D8900F
:1016800003360436052A04AE48EF0BF04AEF0BF0A0
:101690003FEF0BF00350015C04500258D8A053EF09
:1016A0000BF055EF0BF059EF0BF00350015E0450B7
:1016B000025AD89004320332052E4AEF0BF001C0D3
:1016C00001F002C002F01200000E046E000E036E64
:1016D0008AEF0BF0000E056E280E056472EF0BF01A
:1016E00074EF0BF076EF0BF088EF0BF0000E066E48
:1016F000020E06647EEF0BF080EF0BF082EF0BF032
:1017000085EF0BF0062A78EF0BF0052A6CEF0BF053
:10171000034A042A0150035C02500458D8A093EFF6
:101720000BF095EF0BF06AEF0BF01200076E83CF12
:1017300008F0000E956E000E026E220E016E000E75
:10174000046E010E036ED0EC06F007C083FF000E9E
:10175000026E210E016E000E046E010E036ED0ECBF
:1017600006F0000E026E210E016E000E046E000ED9
:10177000036ED0EC06F008C083FF39EC0CF01200C9
:10178000000E0D6ED3EF0BF00D5009240B6E000E02
:101790000A200C6E0BC0F6FF0CC0F7FF0800F550D6
:1017A00096EC0BF00D2A0D5009240B6E000E0A204A
:1017B0000C6E0BC0F6FF0CC0F7FF0800F5500009D7
:1017C000D8A4E5EF0BF0E7EF0BF0C4EF0BF012003D
:1017D0000B6E000E0A6E0B50D8A4F1EF0BF0F3EF76
:1017E0000BF0F6EF0BF00950800F0A6E0B04D8A433
:1017F000FCEF0BF0FEEF0BF001EF0CF00950C00F07
:101800000A6E0A5047EC0AF0120008500A02F3CFA1
:101810000CF0F4CF0DF008500B02F3500D260950D8
:101820000A02F3500D260CC008F00DC009F012009A
:10183000480E016EE80E026E010E036E000E046E7D
:101840000FC005F010C006F0076A086AB4EC08F093
:101850000104CB6E1200000E026E39EC0CF0022A6D
:10186000310E026436EF0CF038EF0CF02DEF0CF077
:101870001200000E016E012A180E016442EF0CF0F6
:1018800044EF0CF03BEF0CF0120000EE51F00C0EA8
:10189000EE6AE806FDE1000EF86E000123EF03F0AA
:1018A00094929494030ECA12CA840C0EBD120C0EAC
:1018B000BA12120055C001F056C002F01200070E15
:0818C00093160F0E95121200A1
:020000040020DA
:08000000FFFFFFFFFFFFFFFF00
:020000040030CA
:0E000000FF027100FF8380FF0FC00FE00F4072
:00000001FF
