:020000040000FA
:0400000033EF0BF0DF
:100600000056616D6F7320696E69636961722100C4
:10061000436C6971756520656D2028312900467528
:100620006E63696F6E616E646F210054656D7065F5
:100630007261747572613A0054656D706F3A006D45
:10064000696E00430000000E486E100E476E000EEB
:10065000286E000E296E000E2A6E000E2B6E000E04
:100660003F6EB40E3E6E300E406E300E416E300E58
:10067000426E000E466E000E456E070E926E000E24
:10068000936E000E946E87EC09F054EC0BF0010EA3
:100690002826000E29222A222B22010E096E000E86
:1006A000E9EC0AF0010E096E060E0A6EC1EC0AF0C2
:1006B000010E096E010EE9EC0AF0100E096E060E2D
:1006C0000A6EC1EC0AF07EEC07F04FEC0BF04750DD
:1006D000011809E148500218D8B471EF03F073EF24
:1006E00003F047EF03F04FEC0BF001C047F002C0FE
:1006F00048F047A67EEF03F080EF03F047EF03F0EA
:10070000010E48EC09F01AEF04F0000E096E000E1D
:10071000E9EC0AF02B0E096E060E0A6EC1EC0AF027
:1007200007EC09F019C03EF01AC03FF0000E096E48
:10073000010EE9EC0AF0380E096E060E0A6EC1ECE5
:100740000AF0060E096E010EE9EC0AF0405097EC33
:100750000AF0415097EC0AF0425097EC0AF03F0E35
:10076000096E060E0A6EC1EC0AF07EEC07F04FEC43
:100770000BF04750011809E148500218D8B4C3EFF4
:1007800003F0C5EF03F01AEF04F04FEC0BF001C0DB
:1007900047F002C048F047A2D0EF03F0D2EF03F0D9
:1007A000E6EF03F0390E4018D8A4D9EF03F0DBEFE1
:1007B00003F0DFEF03F0300E406E1AEF04F0402A32
:1007C000640E4526000E46221AEF04F047AAEBEF0E
:1007D00003F0EDEF03F001EF04F0390E4118D8A457
:1007E000F4EF03F0F6EF03F0FAEF03F0300E416E92
:1007F0001AEF04F0412A0A0E4526000E46221AEF8F
:1008000004F048A206EF04F008EF04F01AEF04F039
:10081000390E4218D8A40FEF04F011EF04F015EFD1
:1008200004F0300E426E1AEF04F0422A454A462A7E
:100830001AEF04F047A01FEF04F021EF04F085EF5A
:1008400003F047A026EF04F028EF04F022EF05F0B4
:10085000010E48EC09F048EC0BF00A0E3E24326E13
:10086000000E3F20336EF60E3E24346EFF0E3F2006
:10087000356E3EEC0BF01E0EFDEC09F0816812EFB8
:1008800005F0010E48EC09F0020E096E000EE9ECCD
:100890000AF01E0E096E060E0A6EC1EC0AF0090E71
:1008A000096E010EE9EC0AF045C015F046C016F0DD
:1008B0002C0E176E000E186E3BEC08F02E5097ECC5
:1008C0000AF02F5097EC0AF0305097EC0AF03F0EE8
:1008D000096E060E0A6EC1EC0AF04506D8A046065F
:1008E000010EBFEC08F001C008F002C009F0000ED4
:1008F0000B6E0A0E0A6E06EC0BF0D8900930266ECD
:100900000830366E26C037F0E80E3624086EFE0E2C
:100910003720096E000E0B6EDE0E0A6E06EC0BF031
:1009200008C00EF009C00FF0000E116E2E0E106EF2
:10093000C3EC09F0180E0E24436E010E0F20446E16
:10094000010E096E010EE9EC0AF043C015F044C037
:1009500016F0380E176E000E186E3BEC08F039508A
:1009600097EC0AF03A5097EC0AF03B5097EC0AF0FB
:100970002C0E97EC0AF03C5097EC0AF0430E096EEF
:10098000060E0A6EC1EC0AF0030E026EE80E016E4E
:1009900065EC0AF032C008F033C009F0000E0B6EAF
:1009A0000A0E0A6E06EC0BF04350085C44500958DE
:1009B000D8B0DDEF04F0DFEF04F0E6EF04F0000E56
:1009C000026E640E016E65EC0AF0829A34C008F083
:1009D00035C009F0000E0B6E0A0E0A6E06EC0BF025
:1009E0000850435C09504458D8B0F9EF04F0FBEFCD
:1009F00004F0FCEF04F0828A7EEC07F04FEC0BF081
:100A00004750011809E148500218D8B40AEF05F020
:100A10000CEF05F012EF05F04FEC0BF001C047F0C2
:100A200002C048F047B817EF05F019EF05F022EFC4
:100A300005F045504610D8A420EF05F022EF05F050
:100A400041EF04F0000E816E010E48EC09F0829A2D
:100A50009490000EFDEC09F047EF03F000EF00F07A
:100A600002BE3EEF05F0025007E1080E015CD8B06F
:100A70003CEF05F03EEF05F068EF05F00350041081
:100A8000D8B445EF05F047EF05F057EF05F001C08A
:100A900005F0010E066E052A50EF05F0D8900636D7
:100AA000052E4EEF05F00650921256EF06F001C0EB
:100AB00005F0010E066E052A60EF05F0D8900636A7
:100AC000052E5EEF05F00650FF0A921656EF06F06F
:100AD00002BE76EF05F0025007E1100E015CD8B0BF
:100AE00074EF05F076EF05F0A4EF05F00350041065
:100AF000D8B47DEF05F07FEF05F091EF05F001C070
:100B000005F0F80E0526010E066E052A8AEF05F09F
:100B1000D8900636052E88EF05F00650931256EF52
:100B200006F001C005F0F80E0526010E066E052A36
:100B30009CEF05F0D8900636052E9AEF05F006508A
:100B4000FF0A931656EF06F002BEB2EF05F0025010
:100B500007E1180E015CD8B0B0EF05F0B2EF05F078
:100B6000E0EF05F003500410D8B4B9EF05F0BBEF87
:100B700005F0CDEF05F001C005F0F00E0526010EE1
:100B8000066E052AC6EF05F0D8900636052EC4EF8E
:100B900005F00650941256EF06F001C005F0F00E75
:100BA0000526010E066E052AD8EF05F0D890063608
:100BB000052ED6EF05F00650FF0A941656EF06F004
:100BC00002BEEEEF05F0025007E1200E015CD8B046
:100BD000ECEF05F0EEEF05F01CEF06F0035004100B
:100BE000D8B4F5EF05F0F7EF05F009EF06F001C016
:100BF00005F0E80E0526010E066E052A02EF06F046
:100C0000D8900636052E00EF06F00650951256EFE6
:100C100006F001C005F0E80E0526010E066E052A55
:100C200014EF06F0D8900636052E12EF06F00650A7
:100C3000FF0A951656EF06F002BE2AEF06F00250A4
:100C400007E1280E015CD8B028EF06F02AEF06F085
:100C500056EF06F003500410D8B431EF06F033EF2E
:100C600006F045EF06F001C005F0E00E0526010E86
:100C7000066E052A3EEF06F0D8900636052E3CEFAC
:100C800006F00650961256EF06F001C005F0E00E91
:100C90000526010E066E052A50EF06F0D89006369E
:100CA000052E4EEF06F00650FF0A9616120002BE01
:100CB00065EF06F0025007E1080E015CD8B063EF63
:100CC00006F065EF06F08FEF06F003500410D8B47D
:100CD0006CEF06F06EEF06F07EEF06F001C005F057
:100CE000010E066E052A77EF06F0D8900636052E1F
:100CF00075EF06F0065080127DEF07F001C005F099
:100D0000010E066E052A87EF06F0D8900636052EEE
:100D100085EF06F00650FF0A80167DEF07F002BE51
:100D20009DEF06F0025007E1100E015CD8B09BEF7A
:100D300006F09DEF06F0CBEF06F0F80E0126FF0E51
:100D4000022203500410D8B4A8EF06F0AAEF06F070
:100D5000BAEF06F001C005F0010E066E052AB3EFEA
:100D600006F0D8900636052EB1EF06F00650811237
:100D70007DEF07F001C005F0010E066E052AC3EFF6
:100D800006F0D8900636052EC1EF06F00650FF0A91
:100D900081167DEF07F002BED9EF06F0025007E1A1
:100DA000180E015CD8B0D7EF06F0D9EF06F007EFC8
:100DB00007F0F00E0126FF0E022203500410D8B4F3
:100DC000E4EF06F0E6EF06F0F6EF06F001C005F0FE
:100DD000010E066E052AEFEF06F0D8900636052EB6
:100DE000EDEF06F0065082127DEF07F001C005F02E
:100DF000010E066E052AFFEF06F0D8900636052E86
:100E0000FDEF06F00650FF0A82167DEF07F002BEE6
:100E100015EF07F0025007E1200E015CD8B013EF88
:100E200007F015EF07F043EF07F0E80E0126FF0E7D
:100E3000022203500410D8B420EF07F022EF07F08D
:100E400032EF07F001C005F0010E066E052A2BEF08
:100E500007F0D8900636052E29EF07F006508312CA
:100E60007DEF07F001C005F0010E066E052A3BEF8D
:100E700007F0D8900636052E39EF07F00650FF0A26
:100E800083167DEF07F002BE51EF07F0025007E135
:100E9000280E015CD8B04FEF07F051EF07F07DEF5F
:100EA00007F0E00E0126FF0E022203500410D8B412
:100EB0005CEF07F05EEF07F06EEF07F001C005F0A2
:100EC000010E066E052A67EF07F0D8900636052E4C
:100ED00065EF07F0065084127DEF07F001C005F0C2
:100EE000010E066E052A77EF07F0D8900636052E1C
:100EF00075EF07F00650FF0A8416120083CF06F044
:100F00000F0E9512000E0A6EF80E93160AC001F02D
:100F1000010E026E012A8FEF07F0D8900236012EE3
:100F20008DEF07F002509312070E81120AC001F0F4
:100F3000010E026E012A9FEF07F0D8900236012EB3
:100F40009DEF07F00250FF0A8116000E086E000E9A
:100F5000076E074A082A08BEB7EF07F0085009E1F4
:100F60000A0E075CD8A0B7EF07F0B9EF07F0A9EFBA
:100F700007F0000E096E09C001F0010E026E012A91
:100F8000C4EF07F0D8900236012EC2EF07F00250EE
:100F900083140009D8A4CFEF07F0D1EF07F0E9EFF1
:100FA00007F00A50040DF3500924016E010E026E81
:100FB000000E036E012AE0EF07F0D89002360336E8
:100FC000012EDDEF07F002504B1203504C1203EFDD
:100FD00008F00A50040DF3500924016E010E026E50
:100FE000000E036E012AF8EF07F0D89002360336A0
:100FF000012EF5EF07F0021C046E031C056E045071
:101000004B1605504C16092A030E09640AEF08F026
:101010000CEF08F0BBEF07F00A2A020E0A6413EF88
:1010200008F015EF08F084EF07F04B50491807E17E
:101030004C504A18D8A41FEF08F021EF08F024EF15
:1010400008F054062AEF08F00A0E546E4BC049F01F
:101050004CC04AF05450D8A430EF08F032EF08F0FA
:1010600036EF08F049C04DF04AC04EF006C083FF8D
:10107000000E956E120015C00EF016C00FF0270E70
:10108000116E100E106EC3EC09F00E50300F17C029
:10109000D9FF18C0DAFFDF6E20EE01F01750D92615
:1010A0001850DA22270E046E100E036E15C001F0E0
:1010B00016C002F033EC0AF001C00EF002C00FF0CF
:1010C000030E116EE80E106EC3EC09F00E50300FD7
:1010D000DF6E20EE02F01750D9261850DA22030EE8
:1010E000046EE80E036E15C001F016C002F033EC7A
:1010F0000AF001C00EF002C00FF0000E116E640E77
:10110000106EC3EC09F00E50300FDF6E20EE03F0CE
:101110001750D9261850DA22000E046E640E036EA2
:1011200015C001F016C002F033EC0AF001C00EF059
:1011300002C00FF0000E116E0A0E106EC3EC09F023
:101140000E50300FDF6E20EE04F01750D9261850E5
:10115000DA2215C001F016C002F0000E046E0A0E6D
:10116000036E33EC0AF00150300FDF6E20EE05F015
:101170001750D9261850DA22000EDF6E1200076EC3
:10118000CEEF08F0010EC26EE7EF08F0090EC26E56
:10119000E7EF08F0110EC26EE7EF08F00750036E9C
:1011A000046A0450000AD8B4D8EF08F0E7EF08F05A
:1011B0000350000AD8B4C2EF08F0010AD8B4C6EF51
:1011C00008F0030AD8B4CAEF08F0E7EF08F0C282CB
:1011D000C2B2EDEF08F0EFEF08F0E8EF08F0C3CF90
:1011E00003F0060E046ED8900332042EF3EF08F0DD
:1011F0000350C4CF05F0066AD89005360636D8905D
:10120000053606360510016E0650026E1200000EFD
:10121000BFEC08F001C008F002C009F0000E0B6E30
:101220000A0E0A6E06EC0BF008C00EF009C00FF0B3
:10123000000E116ECC0E106EC3EC09F00E50236E32
:101240002350040DF3CF1BF0F4CF1CF0320E1B24FF
:10125000246E000E1C20256E24C015F0166A1D0E8B
:10126000176E000E186E3BEC08F00C0E096E000EA7
:10127000E9EC0AF01F5097EC0AF0205097EC0AF0C6
:10128000215097EC0AF024C019F025C01AF0120082
:10129000086E83CF07F0000E956E000E026E220ED0
:1012A000016E000E046E000E036E57EC06F008C0CF
:1012B00083FF000E026E210E016E000E046E010E01
:1012C000036E57EC06F0000E026E210E016E000E4A
:1012D000046E000E036E57EC06F007C083FF020E8B
:1012E0000818D8B476EF09F078EF09F080EF09F02C
:1012F0000804D8A47EEF09F080EF09F084EF09F02C
:1013000019EC0BF086EF09F027EC0BF01200000E41
:10131000026E220E016E000E046E000E036E30ECA3
:1013200005F0000E026E210E016E000E046E000E1E
:10133000036E30EC05F0000E956E19EC0BF019EC15
:101340000BF019EC0BF019EC0BF019EC0BF0380E5C
:1013500048EC09F019EC0BF019EC0BF0380E48ECE6
:1013600009F019EC0BF0380E48EC09F0380E48EC97
:1013700009F0060E48EC09F00C0E48EC09F0010EDD
:1013800048EC09F01200000E136E000E126E1050A1
:101390001110D8B4CEEF09F0D0EF09F0F8EF09F052
:1013A000010E146ED8EF09F0D89010361136142AB9
:1013B00011AEDDEF09F0DFEF09F0D4EF09F0D890BE
:1013C0001236133610500E5C11500F58D8A0EBEFA8
:1013D00009F0EDEF09F0F2EF09F010500E5E115038
:1013E0000F5A1280D89011321032142EDFEF09F00C
:1013F00012C00EF013C00FF01200176E010ECB24B6
:10140000086E096A000E092217C00AF00B6A06EC82
:101410000BF008C018F009C019F018C00EF019C080
:101420000FF0000E116E190E106EC3EC09F00EC015
:1014300018F00FC019F0FF0E1816030E191618C079
:1014400015F019C016F0D89016321532D890163211
:1014500015321550BE6E18C015F0030E151615384E
:10146000F00BBD12120003500410D8B43AEF0AF08A
:101470003CEF0AF060EF0AF0010E056E44EF0AF04F
:10148000D89003360436052A04AE49EF0AF04BEF34
:101490000AF040EF0AF00350015C04500258D8A053
:1014A00054EF0AF056EF0AF05AEF0AF00350015ECB
:1014B0000450025AD89004320332052E4BEF0AF042
:1014C00001C001F002C002F01200000E046E000E16
:1014D000036E8BEF0AF0000E056E280E056473EFA5
:1014E0000AF075EF0AF077EF0AF089EF0AF0000EC4
:1014F000066E020E06647FEF0AF081EF0AF083EFBA
:101500000AF086EF0AF0062A79EF0AF0052A6DEF55
:101510000AF0034A042A0150035C02500458D8A080
:1015200094EF0AF096EF0AF06BEF0AF01200076EE4
:1015300083CF08F0000E956E000E026E220E016E33
:10154000000E046E010E036E57EC06F007C083FF19
:10155000000E026E210E016E000E046E010E036E6F
:1015600057EC06F0000E026E210E016E000E046EA6
:10157000000E036E57EC06F008C083FF27EC0BF05B
:101580001200000E0D6ED4EF0AF00D5009240B6E00
:10159000000E0A200C6E0BC0F6FF0CC0F7FF08000F
:1015A000F55097EC0AF00D2A0D5009240B6E000E31
:1015B0000A200C6E0BC0F6FF0CC0F7FF0800F550B8
:1015C0000009D8A4E6EF0AF0E8EF0AF0C5EF0AF048
:1015D00012000B6E000E0A6E0B50D8A4F2EF0AF048
:1015E000F4EF0AF0F7EF0AF00950800F0A6E0B04CF
:1015F000D8A4FDEF0AF0FFEF0AF002EF0BF009505C
:10160000C00F0A6E0A5048EC09F0120008500A0296
:10161000F3CF0CF0F4CF0DF008500B02F3500D2671
:1016200009500A02F3500D260CC008F00DC009F055
:101630001200000E026E27EC0BF0022A310E02643B
:1016400024EF0BF026EF0BF01BEF0BF01200000E57
:10165000016E012A180E016430EF0BF032EF0BF02F
:1016600029EF0BF0120000EE49F00C0EEE6AE806CE
:10167000FDE1000EF86E000123EF03F094929494C4
:10168000030ECA12CA840C0EBD120C0EBA1212003E
:10169000010EC26E0B0EC16E010EC06E12004DC067
:1016A00001F04EC002F01200070E93160F0E9512B5
:0216B000120026
:020000040020DA
:08000000FFFFFFFFFFFFFFFF00
:020000040030CA
:0E000000FF027100FF8380FF0FC00FE00F4072
:00000001FF
